:100000000C9480000C94A8000C94A8000C94A800F8
:100010000C94A8000C94A8000C94A8000C94A800C0
:100020000C94A8000C94A8000C94A8000C94A800B0
:100030000C94A8000C94A8000C94A8000C94A800A0
:100040000C9485030C94A8000C9453030C942D037A
:100050000C94A8000C94A8000C94A8000C94A80080
:100060000C94A8000C94A80008000000BE9224493B
:10007000123EABAAAA2ABECDCCCC4C3E00000080DA
:10008000BEABAAAAAA3E00000000BF000000803F4D
:100090000000000000084178D3BB4387D1133D190D
:1000A0000E3CC3BD4282AD2B3E68EC8276BED98F3A
:1000B000E1A93E4C80EFFFBE01C4FF7F3F0000007E
:1000C000000000000000250028002B0000000000B8
:1000D000240027002A000404040404040404020287
:1000E00002020202030303030303010204081020B7
:1000F000408001020408102001020408102041057C
:1001000011241FBECFEFD8E0DEBFCDBF11E0A0E0CD
:10011000B1E0E2EBF0E102C005900D92A23AB10726
:10012000D9F722E0A2EAB1E001C01D92A036B207E1
:10013000E1F710E0C0E8D0E004C02197FE010E9482
:100140005108CF37D107C9F70E94CF030C94570845
:100150000C94000090E0FC01E651FF4F24918A527C
:100160009F4FFC018491882399F090E0880F991F9C
:10017000FC01E453FF4FA591B491FC01EE53FF4FF6
:10018000859194918FB7F894EC91E22BEC938FBF0B
:100190000895AF92BF92CF92DF92EF92FF920F93AA
:1001A0001F93CF93DF936C017B018B01040F151F0D
:1001B000EB015E01AE18BF08C017D10759F0699175
:1001C000D601ED91FC910190F081E02DC6010995D9
:1001D000892B79F7C501DF91CF911F910F91FF9086
:1001E000EF90DF90CF90BF90AF900895FC01538DBA
:1001F000448D252F30E0842F90E0821B930B541701
:1002000010F0CF96089501970895FC01918D828D8D
:10021000981761F0A28DAE0FBF2FB11D5D968C9126
:10022000928D9F5F9F73928F90E008958FEF9FEF65
:100230000895FC01918D828D981731F0828DE80F21
:10024000F11D858D90E008958FEF9FEF0895FC01DB
:10025000918D228D892F90E0805C9F4F821B9109A8
:100260008F739927089583EC91E00E94270121E084
:10027000892B09F420E0822F089580E090E0892BFB
:1002800029F00E94330181110C9400000895FC01B3
:10029000A48DA80FB92FB11DA35ABF4F2C91848DE7
:1002A00090E001968F739927848FA689B7892C9344
:1002B000A089B1898C91837080648C93938D848D97
:1002C000981306C00288F389E02D80818F7D80839A
:1002D0000895EF92FF920F931F93CF93DF93EC015A
:1002E00081E0888F9B8D8C8D98131AC0E889F989DD
:1002F000808185FF15C09FB7F894EE89FF896083E0
:10030000E889F98980818370806480839FBF81E060
:1003100090E0DF91CF911F910F91FF90EF900895A2
:10032000F62E0B8D10E00F5F1F4F0F731127E02E7D
:100330008C8D8E110CC00FB607FCFACFE889F989B5
:10034000808185FFF5CFCE010E944701F1CFEB8D73
:10035000EC0FFD2FF11DE35AFF4FF0829FB7F89489
:100360000B8FEA89FB8980818062CFCFCF93DF93A7
:10037000EC01888D8823B9F0AA89BB89E889F989BD
:100380008C9185FD03C0808186FD0DC00FB607FCF2
:10039000F7CF8C9185FFF2CF808185FFEDCFCE0125
:1003A0000E944701E9CFDF91CF9108958E5080647C
:1003B00080937C0080917A00806480937A008091A1
:1003C0007A0086FDFCCF80917800909179000895A5
:1003D0003FB7F8948091A7019091A801A091A9013D
:1003E000B091AA0126B5A89B05C02F3F19F0019630
:1003F000A11DB11D3FBFBA2FA92F982F8827BC017F
:10040000CD01620F711D811D911D42E0660F771FA6
:10041000881F991F4A95D1F70895FC01019000208B
:10042000E9F73197AF01481B590BBC0183EC91E010
:100430000C94C9008F929F92AF92BF920F931F931B
:10044000CF93DF93CDB7DEB7A1970FB6F894DEBF99
:100450000FBECDBF19A2423008F44AE08E010F5DF5
:100460001F4F842E912CB12CA12CA50194010E9428
:100470002F08E62FB901CA01EA30F4F4E05DD80193
:10048000EE938D01232B242B252B79F790E080E030
:10049000109719F0CD010E940D02A1960FB6F894A5
:1004A000DEBF0FBECDBFDF91CF911F910F91BF90E7
:1004B000AF909F908F900895E95CE1CF8F929F92CB
:1004C000AF92BF92CF92DF92EF92FF920F931F9362
:1004D000CF93DF936B017C01042FAC019B010E9441
:1004E000F5078823C1F082E191E00E940D02EC0142
:1004F0008EE191E00E940D028C0F9D1FDF91CF9144
:100500001F910F91FF90EF90DF90CF90BF90AF9031
:100510009F908F90089546015701E894B7F82FEF08
:100520003FEF4FE75FE7C501B4010E94F507811176
:100530000DC02FEF3FEF4FE75FE7C501B4010E9409
:10054000DB0518161CF486E191E0CFCF2FEF3FEFCB
:100550004FE75FE4C701B6010E94330718161CF489
:100560008AE191E0C2CF2FEF3FEF4FE75FECC70189
:10057000B6010E94DB0587FDF3CF20E030E0A90142
:10058000C701B6010E94DB05D0E0C0E087FF0AC0CA
:100590006DE283EC91E00E946901EC01F7FAF094BE
:1005A000F7F8F094102FB12C60E070E080E09FE34A
:1005B000B01640F420E030E040E251E40E94E00553
:1005C000B394F6CFA70196010E946F056B017C01E1
:1005D0000E9452064B015C014AE00E941A02C80FB9
:1005E000D91F002309F484CFC501B4010E948106FC
:1005F0009B01AC01C701B6010E946E056B017C0135
:100600006EE283EC91E00E946901C80FD91F11507E
:1006100008F46ECF20E030E040E251E4C701B601BB
:100620000E9488074B015C010E9452066B01F12C6D
:10063000E12C4AE0C701B6010E941A02C80FD91F77
:10064000C701B6010E9481069B01AC01C501B4013E
:100650000E946E056B017C01DACF1F920F920FB6DC
:100660000F9211242F933F934F935F936F937F9338
:100670008F939F93AF93BF93EF93FF9383EC91E09E
:100680000E944701FF91EF91BF91AF919F918F9190
:100690007F916F915F914F913F912F910F900FBE7E
:1006A0000F901F9018951F920F920FB60F92112462
:1006B0002F938F939F93EF93FF93E091D301F0914A
:1006C000D4018081E091D901F091DA0182FD1BC053
:1006D00090818091DC018F5F8F732091DD01821703
:1006E00041F0E091DC01F0E0ED53FE4F958F8093F7
:1006F000DC01FF91EF919F918F912F910F900FBE91
:100700000F901F9018958081F4CF1F920F920FB613
:100710000F9211242F933F938F939F93AF93BF9387
:100720008091A3019091A401A091A501B091A6018F
:100730003091A20123E0230F2D3758F50196A11D1A
:10074000B11D2093A2018093A3019093A401A093D3
:10075000A501B093A6018091A7019091A801A09155
:10076000A901B091AA010196A11DB11D8093A70115
:100770009093A801A093A901B093AA01BF91AF9152
:100780009F918F913F912F910F900FBE0F901F90CF
:10079000189526E8230F0296A11DB11DD2CF78949B
:1007A00084B5826084BD84B5816084BD85B5826076
:1007B00085BD85B5816085BD80916E008160809327
:1007C0006E00109281008091810082608093810090
:1007D00080918100816080938100809180008160A0
:1007E000809380008091B10084608093B1008091FB
:1007F000B00081608093B00080917A008460809323
:100800007A0080917A00826080937A0080917A00E9
:10081000816080937A0080917A00806880937A006A
:100820001092C100E091D301F091D40182E0808365
:10083000E091CF01F091D0011082E091D101F091CF
:10084000D20180E180831092DB01E091D701F09129
:10085000D80186E08083E091D501F091D6018081B6
:1008600080618083E091D501F091D601808188601C
:100870008083E091D501F091D601808180688083EA
:10088000E091D501F091D60180818F7D808388E051
:100890000E94AA0089E00E94AA008AE00E94AA00A1
:1008A0008BE00E94AA0085E694EDA4E8B5E480936D
:1008B000BF019093C001A093C101B093C2018CEF1E
:1008C00098EDA2EDBBE38093B7019093B801A0939C
:1008D000B901B093BA01C0E0D0E08FE00E94D60128
:1008E000BC01990F880B990B0E94830620E030E031
:1008F00040EA5BE30E9488076093AB017093AC0110
:100900008093AD019093AE0181E291E00E940D02CF
:100910006091AB017091AC018091AD019091AE01FD
:1009200044E050E00E945E028EE00E94D601BC01CD
:10093000990F880B990B0E94830620E030E040EA73
:100940005BE30E9488076B017C0120E030E44CE10E
:1009500056E40E9488074B015C01A701960160E004
:1009600070E080EA90E40E946E059B01AC01C50135
:10097000B4010E94E0056093BB017093BC018093B9
:10098000BD019093BE012091B7013091B801409113
:10099000B9015091BA010E94E0050E9440079B01F5
:1009A000AC016091BF017091C0018091C101909133
:1009B000C2010E94E0056093B3017093B40180937B
:1009C000B5019093B60123E333E948E853E40E946C
:1009D0006E056093AF017093B0018093B101909365
:1009E000B20189E391E00E940D026091B301709120
:1009F000B4018091B5019091B6014CE551E00E949F
:100A00005E028EE591E00E940D026091AF0170914F
:100A1000B0018091B1019091B2014CE851E00E9487
:100A20005E020E94E8014B015C0188E8C82E83E168
:100A3000D82EE12CF12C0E94E801681979098A0965
:100A40009B09683E734081059105A8F321E0C21A15
:100A5000D108E108F10888EE880E83E0981EA11CF9
:100A6000B11CC114D104E104F10429F7209709F461
:100A700034CF0E943301882309F42FCF0E94000055
:100A80002CCFE3ECF1E01382128288EE93E0A0E039
:100A9000B0E084839583A683B78384E091E091835B
:100AA000808385EC90E09587848784EC90E097873D
:100AB000868780EC90E0918B808B81EC90E0938B2B
:100AC000828B82EC90E0958B848B86EC90E0978B08
:100AD000868B118E128E138E148E08955058BB275C
:100AE000AA270E9486050C94F9060E94EB0638F0AE
:100AF0000E94F20620F039F49F3F19F426F40C947A
:100B0000E8060EF4E095E7FB0C94E206E92F0E945C
:100B10000A0758F3BA17620773078407950720F08E
:100B200079F4A6F50C942C070EF4E0950B2EBA2F51
:100B3000A02D0B01B90190010C01CA01A0011124E3
:100B4000FF27591B99F0593F50F4503E68F11A168F
:100B5000F040A22F232F342F4427585FF3CF469520
:100B600037952795A795F0405395C9F77EF41F1642
:100B7000BA0B620B730B840BBAF09150A1F0FF0F0C
:100B8000BB1F661F771F881FC2F70EC0BA0F621FF8
:100B9000731F841F48F4879577956795B795F795E8
:100BA0009E3F08F0B0CF9395880F08F09927EE0F7D
:100BB0009795879508950E94BE0608F481E00895F0
:100BC0000E94F4050C94F9060E94F20658F00E9467
:100BD000EB0640F029F45F3F29F00C94E206511136
:100BE0000C942D070C94E8060E940A0768F39923D9
:100BF000B1F3552391F3951B550BBB27AA27621719
:100C00007307840738F09F5F5F4F220F331F441F25
:100C1000AA1FA9F335D00E2E3AF0E0E832D0915059
:100C20005040E695001CCAF72BD0FE2F29D0660F46
:100C3000771F881FBB1F261737074807AB07B0E889
:100C400009F0BB0B802DBF01FF2793585F4F3AF08F
:100C50009E3F510578F00C94E2060C942D075F3FFF
:100C6000E4F3983ED4F3869577956795B795F79515
:100C70009F5FC9F7880F911D9695879597F90895FD
:100C8000E1E0660F771F881FBB1F62177307840799
:100C9000BA0720F0621B730B840BBA0BEE1F88F7A8
:100CA000E09508950E94120788F09F5798F0B92F99
:100CB0009927B751B0F0E1F0660F771F881F991F91
:100CC0001AF0BA95C9F714C0B13091F00E942C0700
:100CD000B1E008950C942C07672F782F8827B85F10
:100CE00039F0B93FCCF3869577956795B395D9F7E9
:100CF0003EF490958095709561957F4F8F4F9F4FF3
:100D00000895E89409C097FB3EF4909580957095FE
:100D100061957F4F8F4F9F4F9923A9F0F92F96E947
:100D2000BB279395F695879577956795B795F111BC
:100D3000F8CFFAF4BB0F11F460FF1BC06F5F7F4F59
:100D40008F4F9F4F16C0882311F096E911C077236B
:100D500021F09EE8872F762F05C0662371F096E874
:100D6000862F70E060E02AF09A95660F771F881F43
:100D7000DAF7880F9695879597F90895990F0008E7
:100D8000550FAA0BE0E8FEEF16161706E807F9075D
:100D9000C0F012161306E407F50798F0621B730BF8
:100DA000840B950B39F40A2661F0232B242B252B79
:100DB00021F408950A2609F4A140A6958FEF811D1C
:100DC000811D089597F99F6780E870E060E00895BD
:100DD0009FEF80EC089500240A9416161706180653
:100DE0000906089500240A9412161306140605062F
:100DF0000895092E0394000C11F4882352F0BB0FC0
:100E000040F4BF2B11F460FF04C06F5F7F4F8F4F22
:100E10009F4F089557FD9058440F551F59F05F3F5D
:100E200071F04795880F97FB991F61F09F3F79F00C
:100E300087950895121613061406551FF2CF46958E
:100E4000F1DF08C0161617061806991FF1CF869510
:100E50007105610508940895E894BB2766277727F4
:100E6000CB0197F908950E94BE0608F48FEF08950C
:100E700016F00C94FA070C94E80668940C94E206B9
:100E80000E941207A8F39923C1F3AEF3DF93CF9327
:100E90001F930F93FF92C92FDD2788232AF02197F4
:100EA000660F771F881FDAF720E030E040E85FEB3D
:100EB0009FE3883920F0803E38F021968F770E949A
:100EC0006F05E8E6F0E004C00E946F05E5E9F0E098
:100ED0000E9408088B01BE01EC01FB2E6F577109BF
:100EE0007595771F880B990B0E94830628E132E7DE
:100EF00041E35FE30E949B07AF2D9801AE01FF9095
:100F00000F911F91CF91DF910E9486050C94F906F5
:100F10000E949B070C94F9060E94EB0638F00E9491
:100F2000F20620F0952311F00C94E2060C94E806EA
:100F300011240C942D070E940A0770F3959FC1F3AA
:100F4000950F50E0551F629FF001729FBB27F00D77
:100F5000B11D639FAA27F00DB11DAA1F649F6627CC
:100F6000B00DA11D661F829F2227B00DA11D621F1B
:100F7000739FB00DA11D621F839FA00D611D221FD5
:100F8000749F3327A00D611D231F849F600D211DB9
:100F9000822F762F6A2F11249F5750409AF0F1F03C
:100FA00088234AF0EE0FFF1FBB1F661F771F881FA5
:100FB00091505040A9F79E3F510580F00C94E206F5
:100FC0000C942D075F3FE4F3983ED4F38695779514
:100FD0006795B795F795E7959F5FC1F7FE2B880F4B
:100FE000911D9695879597F908950E94BE06880BE6
:100FF000990B08959F3F31F0915020F48795779594
:101000006795B795880F911D9695879597F90895DF
:10101000DF93CF931F930F93FF92EF92DF927B01A9
:101020008C01689406C0DA2EEF010E949B07FE0136
:10103000E894A5912591359145915591A6F3EF013D
:101040000E948605FE019701A801DA9469F7DF90F6
:10105000EF90FF900F911F91CF91DF910895A1E242
:101060001A2EAA1BBB1BFD010DC0AA1FBB1FEE1F22
:10107000FF1FA217B307E407F50720F0A21BB30B6D
:10108000E40BF50B661F771F881F991F1A9469F7E9
:1010900060957095809590959B01AC01BD01CF0145
:1010A0000895EE0FFF1F0590F491E02D0994F89438
:0210B000FFCF70
:1010B200000000006901C900F600B6012701050120
:1010C20019016E616E00696E66006F7666000D0A28
:1010D200004C756D696E6F7369747920696E207446
:1010E200656E73696F6E3A20005468652074656D91
:1010F2007065726174757265206F66207468652010
:1011020073797374656D2069733A20004B005468DB
:10111200652074656D706572617475726520696EA3
:101122002043656C73697573206F6620746865204F
:1011320073797374656D2069733A200043C38DC25D
:10114200B5C391C39AC39CC39EC389C384C385C3D9
:0211520081001A
:00000001FF
